:020000040800F2
:1000000038050120C1020008532E0008932A000879
:10001000512E000847080008CD3E000800000000EF
:10002000000000000000000000000000033700088E
:100030004908000800000000552E00080537000898
:10004000DB020008DB020008DB020008DB0200081C
:10005000DB020008DB020008DB020008DB0200080C
:10006000DB020008DB020008DB020008DB020008FC
:10007000DB020008DB020008DB020008DB020008EC
:10008000DB020008DB020008DB020008DB020008DC
:10009000DB020008DB020008DB020008DB020008CC
:1000A000DB020008DB020008DB020008DB020008BC
:1000B000DB020008DB020008DB020008DB020008AC
:1000C000DB020008DB020008DB020008DB0200089C
:1000D000DB020008DB020008DB020008DB0200088C
:1000E000DB020008DB020008DB020008DB0200087C
:1000F000DB020008DB020008DB020008DB0200086C
:10010000DB020008DB020008DB020008DB0200085B
:10011000DB020008DB020008DB020008DB0200084B
:10012000DB020008DB020008DB020008DB0200083B
:10013000DB0200080000000000000000DB020008F5
:10014000DB020008DB020008DB020008DB0200081B
:10015000DB020008DB020008DB020008DB0200080B
:10016000DB020008DB020008DB020008DB020008FB
:10017000DB020008DB020008DB020008DB020008EB
:10018000DB020008DB020008DB020008DB020008DB
:10019000DB020008DB020008DB020008DB020008CB
:1001A000DB020008DB020008DB020008DB020008BB
:1001B000DB020008DB020008DB020008DB020008AB
:1001C000DB020008DB020008000000000000000065
:1001D0000000000000000000DB020008000000003A
:1001E000000000000000000000000000000000000F
:1001F0000000000000000000DB020008DB02000835
:10020000DB020008DB02000800000000DB0200083F
:10021000DB020008DB020008DB020008DB0200084A
:10022000DB020008DB020008DB020008000000001F
:10023000DB020008DB02000800000000DB0200080F
:10024000DB020008DB020008DB020008DB0200081A
:10025000DB020008DB020008DB020008DB0200080A
:10026000DB020008DB020008DB020008DB020008FA
:10027000DB020008DB020008DB02000800000000CF
:10028000DB020008DB02000800000000DB020008BF
:1002900000000000DB020008DB020008DB020008AF
:1002A000DB020008DB020008DB020008DFF80CD0EC
:1002B00000F048FA00480047FD47000838050120D3
:1002C0000648804706480047FEE7FEE7FEE7FEE7F0
:1002D000FEE7FEE7FEE7FEE7FEE7FEE7D1370008B0
:1002E000AD0200082DE9F05F0546002092469B46CE
:1002F00088460646814640241BE02846414647463C
:10030000224600F057F853465A46C01A914110D37E
:1003100011461846224600F03EF82D1A67EB0108F8
:100320004F4622460120002100F035F817EB000966
:100330004E41201EA4F10104DFDC484631462A4626
:100340004346BDE8F09FD2B201E000F8012B491E00
:10035000FBD270470022F6E710B513460A46044662
:100360001946FFF7F0FF204610BD30B50B46014699
:1003700000202022012409E021FA02F59D4205D344
:1003800003FA02F5491B04FA02F52844151EA2F1EE
:100390000102F1DC30BD202A04DB203A00FA02F130
:1003A000002070479140C2F1200320FA03F3194363
:1003B00090407047202A04DB203A21FA02F0002105
:1003C000704721FA02F3D040C2F120029140084365
:1003D000194670472DE9FE4F804681EA0300C00FA1
:1003E0000C46009021F0004123F00045B8EB0200DC
:1003F000A94105D24046214690461C460B4602467E
:1004000023F00040104347D0270DC7F30A00C3F381
:100410000A510290401A019040286BDAC3F313008E
:1004200040F4801B0098924620B10023D2EB030ACF
:1004300063EB0B0B01985946C0F140025046FFF7A1
:10044000AAFF06460D4650465946019A00F08CF91F
:1004500010EB08006141002487EA115284EAE77337
:100460001A4340D0009A62B3019A012A4FEA075218
:1004700015DC001B61EB02014FF0004202EA07525B
:10048000CDE90042001C41F5801132462B4600F0B8
:100490008CF903B0BDE8F08F40462146F9E7001B18
:1004A00061EB0201001C41F5801300185B4120182C
:1004B000A2F5001747EB030140EAD570B6196D416C
:1004C00011E06D084FEA360645EAC0754FEA07525B
:1004D000001B61EB0201001C41F5801149084FEA45
:1004E00030000019514132462B4603B0BDE8F04FB1
:1004F00000F04CB90098012240000023D0EB02022A
:1005000063EBE073009821464FEAE074B8EB00001B
:1005100061EB0401E9E783F000435BE781F0004110
:1005200058E72DE9FE4F81EA030404F0004421F06E
:10053000004100944FF0000B23F0004350EA010407
:100540005ED052EA03045BD0C3F30A54C1F30A55E8
:100550002C44A4F2F3340194A0FB0254C1F3130120
:1005600041F48011C3F3130343F4801301FB0244ED
:1005700000FB034E840A970A44EA815447EA8357F2
:10058000A4FB076802958D0A05FB07854FEA932CAB
:1005900004FB0C542705029D4FEA065847EA16371C
:1005A000B5EB08056EEB070C870E920E47EA811734
:1005B00042EA8312A7FB0201B6EB0B0164EB0004D5
:1005C0002B0D43EA0C335E1844EB1C50DA465146BF
:1005D000E7FB0201C5F313044FEA0B3343EA14535C
:1005E0004FEA0432019C43EA0603A4F10C0402948E
:1005F000009CCDE900B400F0D8F803B0BDE8F08F5E
:1006000000200146F9E72DE9F04D81EA030404F0EA
:10061000004B21F0004514464FF0000A23F0004142
:1006200050EA050220D054EA01021DD0C5F30A5752
:100630000246C5F31303C1F31300C1F30A5640F495
:10064000801543F48013A7EB0608101BD64608F26A
:10065000FD3873EB050002D308F1010801E09218A0
:100660005B41B8F1000F03DA00200146BDE8F08DD0
:1006700000204FF48011064684460EE0171B73EBF2
:10068000050705D3121B63EB050306434CEA010C77
:1006900049084FEA300092185B4150EA0107EDD15A
:1006A00052EA030012D082EA040083EA05010843FB
:1006B00005D0101BAB4106D20122002306E0002228
:1006C0004FF0004302E06FF0010253101AEB0600F6
:1006D0004CEB085110EB0A0041EB0B01BDE8F04D6B
:1006E00000F054B8C1F30A52C1F3130140F2FF33D2
:1006F00041F480119A4202DA00200146704740F22C
:1007000033439A42A2F2334202DC5242FFF752BE16
:10071000FFF741BE30B5041E71F1000404DB4FF059
:100720000044404264EB0101141E73F1000405DB38
:100730001C464FF00043524263EB0403994208BF4A
:10074000904230BD064C074D06E0E06840F00103E2
:1007500094E8070098471034AC42F6D3FFF7AAFD9F
:100760007849000898490008202A06DBCB17203A70
:1007700041FA02F043EAE07306E041FA02F3D040A6
:10078000C2F12002914008431946704710B5141E6B
:1007900073F1000408DA401C41F1000192185B413A
:1007A0001A4301D120F0010010BD2DE9F04D924611
:1007B0009B4611B1B1FA81F202E0B0FA80F2203228
:1007C0009046FFF7E8FD04460F4640EA0A0041EA7A
:1007D0000B0153465A46084313D0114653EA010011
:1007E00019D0C8F140025046FFF7E4FD05460E4619
:1007F000504659464246FFF7CEFD084305D001203A
:1008000004E020463946BDE8F08D0020054346EA65
:10081000E0762C4337430A986305E40AA0EB08000E
:100820000022FD0A44EA47540A3002D5002001465E
:10083000E9E7010510196941DDE908450019694139
:10084000BDE8F04DA2E7FEE77047000070B5044632
:1008500000F034F90546601C02D0044800780444D6
:1008600000F02CF9401BA042FAD370BD0800002014
:100870002DE9FC4F01257E4C00234FF0030A4FF079
:10088000B04E4FF00F0BEBE005FA03F637403A009D
:1008900077D04F68012F05D0022F03D0112F01D040
:1008A000122F1AD187684FEA4308D1F80CC00AFA10
:1008B00008F927EA09070CFA08FC4CEA070CC0F80B
:1008C00008C0476891F804C0B743CCF3001C0CFA89
:1008D00003FC4CEA070CC0F804C0C6684FEA430C9E
:1008E000D1F80880E1460AFA0CF7BE43019708FAEE
:1008F00009F848EA0608C0F80C804E68022E01D0BC
:10090000122E12D1DE084FEA437C00EB86060096D9
:100910000F69366A4FEADC6C0BFA0CF807FA0CF731
:1009200026EA08063743009E37620E790768DDF82D
:1009300004C006F0030606FA09F627EA0C073E4350
:1009400006604E68F6001CD54A4E376847F002072D
:10095000376036689F0706F00206009623F003060C
:1009600006F1B046B1463F0FD6F80864DFF80881BB
:100970000BFA07FC404526EA0C0603D14FF0000CA9
:1009800041E06CE0DFF8F4C0604502D14FF0010CAB
:1009900039E0DFF8ECC0604502D14FF0020C32E0E4
:1009A000DFF8E0C0604502D14FF0030C2BE0DFF828
:1009B000D8C0604502D14FF0040C24E0DFF8CCC071
:1009C000604502D14FF0050C1DE0DFF8C4C0604562
:1009D00002D14FF0060C16E0DFF8B8C0604502D136
:1009E0004FF0070C0FE0DFF8B0C0604502D14FF0C8
:1009F000080C08E0DFF8A4C0604502D14FF0090CF4
:100A000001E04FF00A0C0CFA07FC4CEA060CC9F89E
:100A100008C426684F6826EA0206FF0300D516437D
:100A2000266066684F6826EA0206BF0300D51643B3
:100A30006660D1F804C07646DEF800705FEACC2C20
:100A400027EA020700D517433760D1F804C077685A
:100A50005FEA8C2C27EA020700D5174377605B1CFE
:100A60000A681746DA407FF40FAFBDE8FC8F00003C
:100A700080000058544502580000025800040258F3
:100A800000080258000C02580010025800140258C6
:100A900000180258001C0258002002580024025876
:100AA000426921EA02030A4043EA02418161704738
:100AB0000AB1816170470904FBE7000001488068C2
:100AC0007047000008000020024881680278114445
:100AD0008160704708000020032010B500F078F80E
:100AE00000F0B4FF0F4A104914681368C4F30322DE
:100AF00003F00F038A5CC95C02F01F0201F01F01C2
:100B0000D0400A4A20FA01F111600949086000202A
:100B100000F010F808B1012010BD00F02BF8002003
:100B200010BD000018440258584800081800002062
:100B30001400002070B50D4D04462878A0B14FF484
:100B40007A71B1FBF0F00A490968B1FBF0F001F0ED
:100B50004AFE48B9102C07D200222146501E00F050
:100B600017F800206C6070BD012070BD08000020E7
:100B700014000020054808B5016841F00201016039
:100B8000006800F00200009008BD000054450258C3
:100B90000E4BF0B41B680D46C3F30223C3F10706E6
:100BA000042E00D90426191D072901D2002300E0D4
:100BB000DB1E012404FA06F19C40491E2940641EF4
:100BC000994014402143F0BC03F092B90CED00E0D1
:100BD000064900F0070210B54FF6FF040868044B01
:100BE000204040EA02201843086010BD0CED00E0F0
:100BF0000000FA05134970B50A68D243520705D5BB
:100C0000096801F00701814213D118E00A6822F057
:100C1000070202430A60FFF751FF0A4D4FF47A764C
:100C20000446083D07E000BFFFF748FF001BB04245
:100C300001D9012070BD2868C0438004F4D400208D
:100C400070BD00000C48025810B500F0B9FE05490F
:100C50000968054AC1F30211515C01F01F01C84047
:100C600010BD00002044025858480008494930B5DA
:100C7000484C0B1D0A68143409681D68246802F08A
:100C80000303C5F30012C1F30531C4F3CC040029FA
:100C900014FB02F200EE102AF8EE400A75D03F4A2B
:100CA0009FED3D1AB7EE000A6BB1DFED3D1A012B47
:100CB00001D0022B64D002EE101A1168F8EE422A1D
:100CC00081EEA22A21E0334C283C23689B0612D5F2
:100CD000344B246801EE901A1168C4F3C104F8EE95
:100CE000612AE34001EE903AC1F30801F8EE611A7F
:100CF00081EEA22A0BE001EE901ADFED2B2A00BF55
:100D0000F8EE611A116882EEA12AC1F3080101EE22
:100D1000901A1168F8EE611A40EE811A71EE800A9D
:100D200062EE200AC1F3462101EE101AB8EE411A14
:100D300031EE001AC0EE811ABCEEE11A80ED001A05
:100D40001168C1F3064101EE101AB8EE411A31EEF6
:100D5000001AC0EE811ABCEEE11A80ED011A11688A
:100D6000C1F3066101EE101AB8EE411A31EE000A25
:100D700080EE801ABCEEC10A80ED020A30BD04E0AC
:100D800001EE901ADFED092ABAE700210160416007
:100D90008160F3E7284402580000003938440258C3
:100DA0000024744A0090D0030024744C20BCBE4B35
:100DB000494930B5484C0B1D0A681C3409681D6848
:100DC000246802F00303C5F30022C1F30551C4F304
:100DD000CC04002914FB02F200EE102AF8EE400ABF
:100DE00075D03F4A9FED3D1AB7EE000A6BB1DFEDBB
:100DF0003D1A012B01D0022B64D002EE101A1168AB
:100E0000F8EE422A81EEA22A21E0334C283C2368E6
:100E10009B0612D5344B246801EE901A1168C4F376
:100E2000C104F8EE612AE34001EE903AC1F30801F3
:100E3000F8EE611A81EEA22A0BE001EE901ADFEDC6
:100E40002B2A00BFF8EE611A116882EEA12AC1F3C5
:100E5000080101EE901A1168F8EE611A40EE811A4D
:100E600071EE800A62EE200AC1F3462101EE101AEB
:100E7000B8EE411A31EE001AC0EE811ABCEEE11A4A
:100E800080ED001A1168C1F3064101EE101AB8EEA8
:100E9000411A31EE001AC0EE811ABCEEE11A80ED63
:100EA000011A1168C1F3066101EE101AB8EE411A79
:100EB00031EE000A80EE801ABCEEC10A80ED020A13
:100EC00030BD04E001EE901ADFED092ABAE70021F7
:100ED000016041608160F3E7284402580000003956
:100EE000404402580024744A0090D0030024744CFB
:100EF00020BCBE4B2DE9FC5F044650F8241B0025A6
:100F000000902E460801FE4FDFF8F8831DD5A06E35
:100F100050B1B0F5801F0CD0B0F5001F0ED0B0F569
:100F2000401F1DD001250FE0386840F400303860C4
:100F300016E00221201D01F08FFF03E0009802213E
:100F400002F01AF805000BD02E462088C00523D5E4
:100F5000606D05281ED2DFE800F00C11161B1B0087
:100F6000A26ED8F8001021F440111143C8F8001007
:100F7000EBE7386840F40030386009E00021201DBC
:100F800001F06AFF03E00098002101F0F5FF05463B
:100F90007DB100E001252E46208880052BD5A06D6F
:100FA000C02826D00EDCA8B1402818D080280FD148
:100FB0001AE0626DD8F8001021F007011143C8F85B
:100FC0000010E9E7B0F5807F13D0B0F5A07F10D016
:100FD00001250FE0386840F40030386009E0002156
:100FE000201D01F039FF03E00098002101F0C4FF4B
:100FF000054685B12E46208840052ED5E06DB0F51A
:10100000C06F28D010DCB8B1B0F5007F19D0B0F5B2
:10101000806F0FD11AE0A26DD8F8001021F4E071B2
:101020001143C8F80010E6E7B0F5006F13D0B0F533
:10103000206F10D001250FE0386840F40030386090
:1010400009E00021201D01F007FF03E000980021C6
:1010500001F092FF05468DB12E462068DFF8A4B25C
:101060008001ABF1040B1ED5A06CD0B110280ED0BE
:10107000202811D0302814D0012513E0E26DD8F8D3
:10108000001021F460611143C8F80010E5E73868EA
:1010900040F40030386004E00221201D01F0DCFE45
:1010A00005466DB12E462088C0042BD5206EB0F5C4
:1010B000005F20D00DDCA0B1B0F5805F0FD115E04E
:1010C000A26CDBF8001021F030011143CBF80010C6
:1010D000E9E7B0F5405F13D0B0F5804F10D001259F
:1010E0000FE0386840F40030386009E00021201D2E
:1010F00001F0B2FE03E00098002101F03DFF05463B
:1011000085B12E462088800429D5606EB0F5403F19
:1011100023D010DC08B3B0F5803F14D0B0F5003F09
:101120000FD115E0226ED8F8001021F4E0411143F0
:10113000C8F80010E6E7B0F5802F0ED0B0F5A02F6C
:101140000BD001250AE00121201D01F085FE03E0FE
:101150000098012101F010FF05466DB12E46208850
:10116000DFF8A0A140040AF1080A25D5D4F8AC00A4
:1011700030F0704109D01DE0626ED8F8001021F403
:10118000E0211143C8F80010E9E70017072811D241
:10119000DFE800F00E04090E0E0E0E000121201DE6
:1011A00001F05AFE03E00098012101F0E5FE05463A
:1011B0007DB100E001252E46208800041FD5606F18
:1011C000D8B1B0F1805F0ED0B0F1005F10D0012532
:1011D00014E0D4F8AC20DAF8001021F0E04111431B
:1011E000CAF80010E8E7386840F40030386004E0DE
:1011F0000121201D01F030FE05466DB12E4620680C
:10120000C0011ED5606CD0B101280ED0022811D0CB
:10121000032814D0012513E0626FD8F8001021F0E4
:1012200040511143C8F80010E9E7386840F4003035
:10123000386004E00221201D01F00EFE054665B174
:101240002E46206840024FD52F48016841F4807136
:101250000160FFF733FC81460EE0626CDBF80010A2
:1012600021F003011143CBF80010EAE7FFF726FC59
:10127000A0EB0900642835D823480068C005F5D5DF
:101280008DBBDFF88090B4F8B01009F12009D9F8CF
:10129000000001F4407100F44070884211D0D9F888
:1012A0000010D9F8002021F4407142F48032C9F8CE
:1012B0000020D9F8002022F48032C9F80020C9F8B3
:1012C0000010D4F8B000B0F5807F2AD1FFF7F6FB0C
:1012D000019022E0FFF7F2FB0199411A41F28830B8
:1012E00081421AD903252E462078DFF81890C007CE
:1012F00009F1040945D0D4F8800018283FD005E052
:101300002C440258504402580048025826DC80B34E
:10131000082829D0102825D12CE0D9F80000800712
:10132000D8D5D4F8B010C1F301200328FE480DD061
:10133000016821F47C510160B4F8B020D9F80010A4
:10134000C2F30B021143C9F80010CDE7F74A036856
:1013500002EA111223F47C511143ECE720280ED04D
:1013600028280CD001250BE00121201D01F074FD7F
:1013700004E004E00098012101F0FEFD05465DB1A6
:101380002E46207880071FD5E06F06281AD2DFE8A6
:1013900000F0170D12171717D4F88020D9F8001095
:1013A00021F038011143C9F80010EAE70121201D9E
:1013B00001F052FD03E00098012101F0DDFD05463A
:1013C00075B100E001252E46207840071FD5D4F8DE
:1013D0009800062819D2DFE800F0160C1116161630
:1013E000E26FD9F8001021F007011143C9F800108D
:1013F000EAE70121201D01F02FFD03E00098012103
:1014000001F0BAFD05469DB100E001252E46207889
:1014100080062BD5D4F89400B0F1405F24D011DCC5
:1014200010B3B0F1805F15D0B0F1005F10D116E0BD
:10143000D4F89820DAF8001021F007011143CAF817
:101440000010E4E7B0F1804F0ED0B0F1A04F0BD008
:1014500001250AE00021201D01F0FEFC03E00098B8
:10146000022101F089FD05468DB12E462078400607
:101470002BD5D4F8A000B0F5406F24D011DC10B308
:10148000B0F5806F15D0B0F5006F10D116E0D4F82C
:101490009420D9F8001021F0E0411143C9F8001060
:1014A000E4E7B0F5805F0ED0B0F5A05F0BD001256A
:1014B0000AE00021201D01F0CFFC03E0009802218A
:1014C00001F05AFD05468DB12E46207800062BD539
:1014D000D4F8A400B0F5C04F24D011DC10B3B0F59F
:1014E000005F15D0B0F5804F10D116E0D4F8A020E1
:1014F000DAF8001021F4E0511143CAF80010E4E7D3
:10150000B0F5004F0ED0B0F5204F0BD001250AE00A
:101510000021201D01F0A0FC03E00098022101F051
:101520002BFD05464DB12E46207800071ED5D4F878
:101530008800B0F5805F0AD00FE0D4F8A420DAF874
:10154000001021F460411143CAF80010ECE7009844
:10155000022101F011FD00B10126D4F88820D9F84C
:10156000001021F440511143C9F800102078C00642
:1015700013D5D4F89C00B0F5807F05D100980221E6
:1015800001F0FAFC00B10126D4F89C20DAF8001032
:1015900021F440711143CAF800102068000316D5E9
:1015A000D4F8A80038B1B0F5803F09D0B0F5003FBD
:1015B0000BD001250AE00021201D01F04DFC03E0C5
:1015C0000098022101F0D8FC054685B12E4620681E
:1015D000400322D5D4F88C00B0F5801F11D0B0F5AF
:1015E000001F13D0B0F5401F15D0012514E0D4F82A
:1015F000A820DAF8001021F440311143CAF8001095
:10160000E5E7386840F40030386004E000980121D4
:1016100001F0B2FC054655B12E462068C0031CD52A
:10162000E06C70B1B0F5803F10D0012514E0D4F823
:101630008C20D9F8001021F440111143C9F8001092
:10164000EBE7386840F40030386004E00221201DE8
:1016500001F002FC0546D5B12E462068800005D574
:101660000098022101F088FC00B101262068800367
:101670001CD5D4F88400B8B1B0F5807F10D0B0F597
:10168000007F11D0B0F5407F0ED001250DE0E26C57
:10169000DBF8001021F480311143CBF80010DCE7B7
:1016A000386840F400303860E5B32E462068C00248
:1016B00007D5A26FD8F8001021F000411143C8F8F7
:1016C00000102068800207D5E26ED8F8001021F0E3
:1016D00080711143C8F800102088000507D5226FDB
:1016E000DAF8001021F000611143CAF800102068F8
:1016F000400009D50C48016821F4004101600168EF
:10170000D4F8B420114301602068002807DA226D64
:10171000DBF8001021F040511143CBF80010206895
:10172000000205E012E0000010440258CFFFFF0065
:1017300008D5D4F89020D9F8001021F440011143C5
:10174000C9F8001066B10120BDE8FC9FD4F88420E0
:10175000D9F8001021F440711143C9F80010A5E731
:101760000020F1E72DE9F05F04000F467ED0DFF89E
:101770003882D8F8000000F00F00B8420CD2D8F838
:10178000001021F00F013943C8F80010D8F800000C
:1017900000F00F00B84269D12078844D40070AD587
:1017A0002069296801F07001884204D9296821F074
:1017B00070010143296020787C4E361D00070AD550
:1017C0006069316801F07001884204D9316821F004
:1017D0007001014331602078C0060AD5A0693168E4
:1017E00001F4E061884204D9316821F4E0610143E9
:1017F00031602078DFF8B4B180060BF1080B0CD50E
:10180000E1695846DBF8002002F07002914204D9E9
:10181000026822F070020A430260207880070AD52D
:10182000E068296801F00F01884204D9296821F095
:101830000F01014329602078C0073ED05B49A268B0
:101840002868183920F47060104328606068022806
:1018500018D0032819D00968012819D04907002990
:101860004ADADFF848A1AAF1080A00E044E0DAF811
:10187000002022F007020243CAF80020FFF71EF9F9
:10188000814612E009688903E9E709688901E6E70A
:10189000C905E4E7FFF712F9A0EB090141F288302E
:1018A000814202D90320BDE8F09F6168DAF80000A8
:1018B00000F03800B0EBC10FECD1207880070AD5DA
:1018C000E068296801F00F01884204D2296821F0FC
:1018D0000F0101432960D8F80010404601F00F01C4
:1018E000B9420BD9016821F00F013943016000684A
:1018F00000F00F00B84201D00120D4E72078400763
:101900000AD52069296801F07001884204D229684B
:1019100021F0700101432960207800070AD5606931
:10192000316801F07001884204D2316821F0700101
:10193000014331602078C0060AD5A069316801F4FE
:10194000E061884204D2316821F4E06101433160F2
:10195000207880060CD5E1695846DBF8002002F0BB
:101960007002914204D2026822F070020A430260BF
:1019700000F06CF80E492A682B68C2F3032203F0CA
:101980000F038A5CC95C02F01F0201F01F01D04006
:10199000084A20FA01F11160074908600748006809
:1019A000BDE8F05FFFF7C6B80020005218440258A7
:1019B0005848000818000020140000200C000020E7
:1019C00030B500F043F80B4A0B490C4B156814680E
:1019D000C5F3032204F00F048A5C095D02F01F02C4
:1019E00001F01F01D040064A20FA01F11960106091
:1019F000084630BD18440258584800081800002016
:101A00001400002000B5FFF7DBFF05490968054A0F
:101A1000C1F30211515C01F01F01C84000BD00007C
:101A20001C4402585848000800B5FFF7C9FF054993
:101A30000968054AC1F30221515C01F01F01C84049
:101A400000BD00001C44025858480008454970B5C4
:101A500045480968434B103B11F0380208D001118A
:101A6000082A03D0102A0BD0182A0BD0084670BDC4
:101A700019688906FBD51968C1F3C101C84070BD5A
:101A80003A4870BD3749374D18310C1D24350A6866
:101A9000096826682D6802F0030406F00102C1F30C
:101AA0000511C5F3CC0515FB02F200EE102AB8EEC5
:101AB000400AE9B32F4ADFED2E0AB7EE001A6CB1E7
:101AC000DFED2D1A012C01D0022C43D002EE101AAA
:101AD0001068F8EE422A81EEA22A1EE01C68A406D5
:101AE00011D51B6801EE901A1168C3F3C103F8EE1B
:101AF000612AD84001EE900AC1F30800F8EE611A9D
:101B000081EEA22A0BE001EE901ADFED1C2A00BF45
:101B1000F8EE611A106882EEA12AC0F3080001EE07
:101B2000900AF8EE611A40EE201A31EE810A00E0C8
:101B300015E022EE000A1068C0F34620401C00EEBB
:101B4000900AF8EE600A80EE201ABCEEC10A10EE90
:101B5000100A70BD01EE901ADFED092AD8E70020C7
:101B600070BD0000104402580090D00340787D0101
:101B700000000039304402580024744A0024744C98
:101B800020BCBE4B2DE9F04704007DD0FF4F2078EC
:101B9000FE4D1837DFF8F483103DC00766D0D8F843
:101BA0000000396800F03800102822D0182803D12E
:101BB00001F0030002281CD06068B0F5803F1FD000
:101BC00010B3B0F5A02F2BD0B0F5A81F28682FD0E8
:101BD00020F480302860286820F48020286028685D
:101BE00020F480102860606898B3FEF767FF06460F
:101BF0002BE02868800339D560680028C5D035E01F
:101C0000286840F48030EDE7286820F480302860B0
:101C1000286820F480102860286820F48020E1E7FC
:101C2000286840F480202860286820F4801005E0AF
:101C300040F480202860286840F480102860DFE7A6
:101C4000FEF73CFF801B642877D828688003F7D50F
:101C50000CE0FFE7FEF732FF064604E0FEF72EFF3A
:101C6000801B6428F0D828688003F7D42078800788
:101C700044D5D8F80000DFF81493396810F0380024
:101C8000A9F10C0910D000E0CEE0182801D1880796
:101C90000AD0E06808B3296821F0190101432960DE
:101CA000FEF70CFF064614E02868400702D5E068FE
:101CB0000028A3D0217CD9F8002022F0FE4242EA7D
:101CC0000161C9F8001019E0FEF7F8FE801B022838
:101CD000BAD828684007F7D5ECE7286820F001005B
:101CE0002860FEF7EBFE064605E000BFFEF7E6FEC5
:101CF000801B0228A8D828684007F7D42078C0069F
:101D000046D5D8F80000DFF88492396800F0380032
:101D1000A9F10409082811D0182803D101F0030003
:101D200001280BD0E0690028286822D040F080000C
:101D30002860FEF7C3FE064617E0E1E02868C0050C
:101D400002D5E06980286FD194F82010D9F80020DE
:101D500022F07C5242EA0161C9F8001018E000BF8D
:101D6000FEF7ACFE801B0228B2D82868C005F7D564
:101D7000EAE720F080002860FEF7A0FE064604E0B7
:101D8000FEF79CFE801B0228A2D82868C005F7D465
:101D90002078000729D57D48616964300029814693
:101DA000016811D041F001010160FEF787FE06468F
:101DB00005E000BFFEF782FE801B022888D8D9F814
:101DC00000008007F6D510E021F001010160FEF768
:101DD00075FE064605E000BFFEF770FE801B022878
:101DE00088D8D9F800008007F6D42078800625D559
:101DF000A0690028286810D040F480502860FEF7C1
:101E00005DFE064605E000BFFEF758FE801B022877
:101E100076D828688004F7D510E020F48050286038
:101E2000FEF74CFE064606E03BE100BFFEF746FE2D
:101E3000801B022864D828688004F7D420784007E3
:101E40006DD5DFF84C91D9F8001041F48071C9F8D4
:101E50000010FEF733FE064605E000BFFEF72EFE3B
:101E6000801B64284CD8D9F80000C005F6D5474E31
:101E7000A0686036012818D0D8B1052825D085285B
:101E800030682AD020F001003060306820F0040073
:101E90003060306820F080003060A06841F2883AFD
:101EA00078B3FEF70BFE814626E0306840F0010073
:101EB000F2E7306820F001003060306820F08000E8
:101EC0003060306820F00400E6E7306840F004003D
:101ED0003060306820F0800005E040F004003060A1
:101EE000306840F080003060DFE700BFFEF7E6FDBD
:101EF000A0EB0901514503D830688007F6D50EE004
:101F000088E0FFE7FEF7DAFD814605E0FEF7D6FD43
:101F1000A0EB090151457DD830688007F6D4606A8E
:101F2000C0B34146DFF8648008F120080968C1F3B6
:101F3000C20103296FD00228286820F08070286031
:101F400003D0FEF7BBFD044680E0FEF7B7FD064672
:101F500005E000BFFEF7B2FD801B022873D8286899
:101F60008001F7D4E26A40F2F331386854F8283F30
:101F7000884340EA021018433860217B4FF4FE0C7E
:101F800022894FF0FE47208A267D04E01044025843
:101F90000048025887E04902521EA1F5007189B23B
:101FA000401EC2F308021143761E0CEA00400143B2
:101FB0003E4807EA066211433C4AC8F8001008325E
:101FC000016821F00101016011684FF6F876236A7B
:101FD000B14341EAC30111600168A26921F00C011B
:101FE000114301600168E26921F0020111430160BF
:101FF000016841F480310160016841F40031016001
:10200000016841F480210160016841F00101016033
:10201000286801E017E01DE040F080702860FEF7BE
:102020004DFD044605E000BFFEF748FD001B0228F9
:1020300009D828688001F7D535E000BFFEF73EFDDE
:10204000001B022802D90320BDE8F0872868800120
:10205000F4D428E039680128D8F8000021D0A26A19
:1020600001F0030393421CD1E26AC1F305118A42D5
:1020700017D1216BC0F30802491E8A4211D1616B4E
:10208000C0F34622491E91420BD1A16BC0F3064218
:10209000491E914205D1E16BC0F30660491E8142A1
:1020A00001D00120D0E70020CEE700002C440258E8
:1020B0002DE9F047040029D04E4D4FF0000920686B
:1020C0004D4B4E4AA842C4F8289006D0984204D0FE
:1020D000904202D0E1680F2918D8E1684FF0010A58
:1020E000E76B0831C9080AEB57167143A84205D0BF
:1020F000984203D0904201D0082907D8A84203D0C3
:10210000984201D0904204D1102902D90120BDE8A3
:10211000F08794F8810020B9204684F8809000F080
:102120006FF8022084F881002068016821F0010125
:102130000160A069B0F1806F11D16068B0F5800FC7
:1021400001D018B10BE0A06B20B108E0A06BB0F19A
:10215000805F04D12068016841F480510160A56A64
:10216000E0692368E16B2843E26808431043986004
:10217000D4E90D02D4E90571636A25691843D4F8DE
:1021800020C00A43266810432843A56D3843D4E98C
:102190000182D4E9123140EA0C0040EA0800084309
:1021A000104318432843F060606868B9206881686C
:1021B00021F4C05141F4006181602068816821F4FC
:1021C000C06141F4806181602068016D21F00101EE
:1021D00001656068400206D52068626DC16821F023
:1021E00000411143C160C4F8849084F881A00020AC
:1021F0008DE700000030014000380040003C004006
:1022000070B586B0044614216846FEF7A3F81C4951
:102210002068884231D11B48016841F020010160EB
:10222000006800F02000059016481438016841F05D
:1022300001010160016801F001010591016841F0AF
:102240000201016000680721022400F002000590ED
:1022500003260025A003CDE903618DE831000A487B
:102260006946FEF705FB08213820CDE903618DE8BA
:10227000310006486946FEF7FBFA06B070BD000063
:102280000014005854450258000002580004025837
:102290002DE9FC5F0446006817468A4600211D466A
:1022A00094F8802000F1200B0191012A0DD04FF00D
:1022B000010884F88080FEF701FC814694F88100D3
:1022C0000026012804D002201EE00220BDE8FC9F69
:1022D000BAF1000F17D0B7B1A1680320C4F85CA011
:1022E000A4F8607084F88100C4F88460A4F8627077
:1022F0006666A4F86860A4F86A60B1F5C02F6667E6
:10230000266704D008E0012084F88060DEE72068BA
:10231000016841F400610160206841686FF30F01BA
:10232000394341602068016841F001010160606843
:10233000B0F5800F04D12068016841F4007101609C
:10234000E0680F281AD82CE02068416989070BD56E
:10235000E16D09680162E06D001DE065B4F862009E
:10236000401EA4F8620009E0FEF7A8FBA0EB0900FC
:10237000A84202D3681C01D005E025B1B4F8620080
:102380000028E1D183E0204600F086FED4F88410D6
:1023900084F8806041F48071C4F8841084F88180EE
:1023A0008DE007282CD86EE02068416989071CD58C
:1023B000B4F8621001290BD9E16B49B1E16D0968EC
:1023C0000162E06D001DE065B4F86200801E09E066
:1023D000E06D0188ABF80010E06D801CE065B4F89A
:1023E0006200401EA4F862000AE0FEF767FBA0EB63
:1023F0000900A84202D3681C02D0C4E7002DC2D055
:10240000B4F862000028CFD141E020684169890713
:102410002ED5B4F8621003290CD9E16B402909D9F3
:10242000E16D09680162E06D001DE065B4F86200CD
:10243000001F1AE0B4F8621001290CD9E16B51B108
:10244000E06D0188ABF80010E06D801CE065B4F829
:102450006200801E09E0E16D097880F82010E06DCF
:10246000401CE065B4F86200401EA4F862000AE077
:10247000FEF724FBA0EB0900A84202D3681C02D09F
:1024800081E7002DB9D0B4F862000028BDD1002248
:102490004B4608212046009501F012F928B1D4F8E6
:1024A000840040F02000C4F88400204600F0F4FDD1
:1024B00084F88180D4F8840084F8806008B1012019
:1024C00004E7019802E72DE9FF4F83B090F88010F0
:1024D0000446006801294FF00001109F1D4601913C
:1024E00000F1200100F1300093460291009014D0D9
:1024F0004FF0010A84F880A0FEF7E0FA804694F8D5
:1025000081006368002101282E464FF480020CD020
:10251000934208D1A36833B903E0022007B0BDE8B5
:10252000F08F042801D0022037E0049898B3BBF163
:10253000000F31D07DB394F88100042802D005202B
:1025400084F8810089460846C4F88410C4F864B051
:10255000A4F86A50A4F868500499E165A4F86250A0
:10256000A4F8605020676067206841686FF30F012E
:10257000294341602068016841F001010160606801
:10258000904204D12068016841F400710160E06864
:102590000F2835D846E0FFE7012084F88010BDE71A
:1025A0002068416989070DD565B1E16D096801624F
:1025B000E06D001DE065B4F86200401EA4F8620002
:1025C000B4F8625048F208022068416911420DD007
:1025D00066B1006B616E0860606E001D6066B4F8E5
:1025E0006A00401EA4F86A00B4F86A60FEF766FA52
:1025F000A0EB0800B84202D3781C01D004E01FB160
:1026000055EA0600CCD1D2E0204600F045FDD4F8D2
:10261000842084F8809042F48071C4F8841084F897
:1026200081A0DCE007284DD8BEE020684169890719
:102630001CD5DDB1012D0BD9E16B49B1E16D096804
:102640000162E06D001DE065B4F86200801E09E0E3
:10265000E06D018802980180E06D801CE065B4F8AF
:102660006200401EA4F86200B4F86250206841691C
:1026700011F4604F1BD0D6B14169090409D5006B34
:10268000616E0860606E001D6066B4F86A00801EAE
:1026900009E000980088616E0880606E801C6066AA
:1026A000B4F86A00401EA4F86A00B4F86A60FEF745
:1026B00005FAA0EB0800B84202D3781C02D0A3E7C9
:1026C000002FA1D055EA0600AFD170E02068416923
:1026D00089072CD55DB3032D0CD9E16B40290BD9AB
:1026E000E16D09680162E06D001DE065B4F862000B
:1026F000001F18E0012D0CD9E16B51B1E06D01888C
:1027000002980180E06D801CE065B4F86200801ED4
:1027100009E0E16D097880F82010E06D401CE0656B
:10272000B4F86200401EA4F86200B4F86250206859
:10273000416911F4604F2CD05EB34169090409D599
:10274000006B616E0860606E001D6066B4F86A0020
:10275000001F1AE0416901F4C041B1F5005F0AD9D8
:1027600000980088616E0880606E801C6066B4F816
:102770006A00801E09E090F83000616E0870606E9B
:10278000401C6066B4F86A00401EA4F86A00B4F801
:102790006A60FEF793F9A0EB0800B84202D3781CF8
:1027A00002D031E7002F8AD055EA06008ED10022F0
:1027B000434608212046009700F082FF28B1D4F854
:1027C000840040F02000C4F88400204600F064FC3F
:1027D00084F881A0D4F8841084F8809009B1012095
:1027E0009CE601989AE6401EB0F1807F10B501D3B7
:1027F000012010BD4FF0E02460610F21601701F04F
:1028000077FB0020A0610721216110BD30B590F851
:102810008010012918D0012280F880202421C0F8DE
:1028200084100022202450F8641B0B680D6823F0EC
:10283000005325F001050D60026050F8641C0B6028
:1028400004620277104630BD022030BD70B50446E8
:1028500090F8800001281DD0012284F880202420D7
:10286000C4F8840020680568026822F00102026052
:102870002068826822F060620A438260204601F08C
:102880000BF82268202100201560C4F8841084F819
:10289000800070BD022070BD70B5044690F88000C5
:1028A00001281DD0012284F880202420C4F884004F
:1028B00020680568026822F00102026020688268D0
:1028C00022F060420A438260204600F0E5FF226861
:1028D000202100201560C4F8841084F8800070BDA9
:1028E000022070BD10B5040003D0D4F8840010B1EC
:1028F00007E0012010BD002084F88000204600F091
:1029000027F82420C4F884002068016821F0010120
:102910000160204601F076F80128EBD0A06A10B1E2
:10292000204600F0DBFF2068416821F490414160BF
:102930002068816821F02A0181602068016841F0E7
:10294000010101602046BDE8104001F02BB80000F5
:1029500010B586B0044614216846FDF7FBFC1A4901
:10296000206888422ED11948016841F010010160A9
:10297000006800F01000059014481038016841F01C
:1029800001010160016801F001010591016841F058
:102990000101016000680221012200F001000590A0
:1029A000032307244FF400708DE81F00084C69468C
:1029B0002046FDF75DFF4FF4806069460090204699
:1029C000FDF756FF06B010BD0010014050450258FB
:1029D000000002582DE9F8430446D0F884001F4651
:1029E00016460D46202852D1DDB1D6B194F88000AC
:1029F00001284CD0012084F8800021224FF00008EB
:102A0000C4F88C80C4F884201834FEF757F8814647
:102A100054F8100CA687E687183CB0F5805F03D009
:102A200004E00120BDE8F883206920B12E4600258E
:102A300084F8808010E00026FAE78021204601F02B
:102A4000CDF9B8B9C6B116F8010B21688862B4F89F
:102A50005600401EA4F85600B4F856004B464FF0FE
:102A6000000200970028E8D14FF04001204601F015
:102A7000B5F938B10320D5E735F8020B2168C0F36A
:102A80000800E3E72020C4F884000020CAE7022001
:102A9000C8E7FEE700B587B014216846FDF75AFC89
:102AA0000A48016841F00401016000680021012228
:102AB00000F0040005904FF400508DE80700044832
:102AC0006946FDF7D5FE07B000BD0000404502583D
:102AD0000008025810B586B014216846FDF73AFC8C
:102AE0000D48016841F004010160006800220B4CB0
:102AF000022100F0040005902046FDF7D9FF0021D7
:102B00000220009001222046CDE90121039169466F
:102B1000FDF7AEFE06B010BD404502580008025851
:102B20001248072330B44FF480040F4D0021E20116
:102B3000C0E902130161C0E90512C16120220162EE
:102B4000416293068162C1624163C0E90E12016471
:102B500041648164C164C0E914138165C0E9005413
:102B600030BCFFF7A5BA000000140058B0000120E7
:102B700010B5026840F26F335169946944F008045B
:102B800094610268946944F01004946102681468C6
:102B900024F001041460026814699C431461026803
:102BA000936823F44043936090F88120042A0CD06A
:102BB0008A060AD5D0F8842042F08002C0F884202A
:102BC0000268936943F02003936190F88120032AFF
:102BD0000CD04A060AD5D0F8842042F00402C0F88E
:102BE00084200268936943F0400393618A050AD503
:102BF000D0F8842042F00102C0F884200268936972
:102C000043F400739361C9050AD5D0F8841041F0EC
:102C10000801C0F8841001688A6942F480728A61F0
:102C20000021A0F86210A0F86A1010BD2DE9FE4F37
:102C30000E4690F8801004469A46DDF830B0002029
:102C4000012915464FF47A77029026D04FF00109FA
:102C500084F88090FDF732FF019094F881000428F9
:102C600002D0052084F881004FF00008C4F8848069
:102C7000C4F87080C4F87480E665656620684168B1
:102C80006FF30F0141602068016841F001010160AC
:102C90006068B0F5800F03D007E00220BDE8FE8F2A
:102CA0002068016841F400710160E66550465146B4
:102CB00065661AE0226853699B0708D538B1E36D51
:102CC0001B7882F82030E26D521CE265401E2268BB
:102CD000536913F4604F08D039B192F83020636E15
:102CE0001A70626E521C6266491E50EA0102E1D1FE
:102CF000E6655E4665665D465FE04169890721D508
:102D000005B3032D0AD9E16B402907D9E16D0968A4
:102D10000162E06D001DE0652D1F13E0012D09D952
:102D2000E16B39B1E16D09880184E06D801CE065DB
:102D3000AD1E07E0E16D097880F82010E06D401CC1
:102D4000E0656D1E2068416911F4604F21D006B323
:102D50004169090407D5006B616E0860606E001D53
:102D60006066361F15E0416901F4C041B1F5005FAE
:102D700007D9008E616E0880606E801C6066B61E8A
:102D800007E090F83000761E616E0870606E401C9F
:102D90006066FDF793FE0199401AB8420DD32046B4
:102DA000FFF7E6FED4F8842084F8808042F4807136
:102DB000C4F8841084F8819025E055EA0600206864
:102DC0009BD1016841F480610160019B00224FF4B6
:102DD00000612046009700F01AF828B1D4F884006A
:102DE00040F02000C4F884002046FFF7C1FE2068B0
:102DF000836943F40063836184F8808084F8819060
:102E0000D4F8840008B1012048E7029846E72DE98C
:102E1000F041984616460D460746069C09E0FDF728
:102E20004DFEA0EB0800A04202D3601C01D00BE0D5
:102E300054B13868406935EA000007D00020B0423C
:102E4000EDD00020BDE8F0810320FBE70120F6E78C
:102E5000FEE7FEE7704700002DE9F047454D0446C8
:102E600089464FF0000A2868C04380070AD0414EC7
:102E7000283E306820F080603060FDF71FFE074676
:102E8000B04608E00120BDE8F08700BFFDF716FE60
:102E9000C01B022867D8D8F800000001F6D42068CB
:102EA00029684FF4FE0721F47C313E0241EA0030EC
:102EB0002860207AA389B4F804C040022D4D2D4922
:102EC0005B1E227CACF1010C1035091DA0F50070D1
:102ED00080B2521ECCF3080C07EA034340EA0C0010
:102EE000184306EA0262104328600868626920F00D
:102EF000C000104308600A68A06922F02002024363
:102F00000A60281D0A6822F010020A6002684FF663
:102F1000F873E4699A4342EAC40202600868B9F1AE
:102F2000000F40F010020A6011D00868B9F1010FDB
:102F300011D040F400100860D8F80000444640F07A
:102F40008060C8F80000FDF7B9FD05460DE008688F
:102F500040F40020EFE740F48010ECE7FDF7AEFD11
:102F6000401B022801D903208DE720680001F5D518
:102F7000504688E7284402582DE9F047454D04465D
:102F800089464FF0000A2868C04380070AD0414EA6
:102F9000283E306820F080503060FDF78FFD0746F6
:102FA000B04608E00120BDE8F08700BFFDF786FDD0
:102FB000C01B022867D8D8F800008000F6D420880B
:102FC00029684FF4FE0721F07C713E0241EA00506F
:102FD0002860207AA389B4F804C040022D4D2D4901
:102FE0005B1E227CACF1010C1835091DA0F50070A8
:102FF00080B2521ECCF3080C07EA034340EA0C00EF
:10300000184306EA0262104328600868626920F4E7
:103010004060104308600A68A06922F4007202430D
:103020000A60281D0A6822F480720A6002684FF65E
:10303000F873E4699A4342EAC40202600868B9F18D
:10304000000F40F480720A6011D00868B9F1010FD6
:1030500011D040F080700860D8F80000444640F07D
:103060008050C8F80000FDF729FD05460DE008680E
:1030700040F48000EFE740F40000ECE7FDF71EFDB0
:10308000401B022801D903208DE720688000F5D578
:10309000504688E72844025810B5026840F26F3362
:1030A0005169946944F0080494610268946944F099
:1030B000100494610268146824F00104146002682A
:1030C00014699C4314610268936823F4404393603D
:1030D00090F88120042A0CD08A060AD5D0F88420E2
:1030E00042F08002C0F884200268936943F0200314
:1030F000936190F88120032A0CD04A060AD5D0F8B3
:10310000842042F00402C0F884200268936943F0EE
:10311000400393618A050AD5D0F8842042F0010269
:10312000C0F884200268936943F400739361C90571
:103130000AD5D0F8841041F00801C0F88410016865
:103140008A6942F480728A610021A0F86210A0F8B6
:103150006A1010BD3EB5044600F06CFA52208DF89E
:103160000400210C8DF80510220A8DF806204FF47A
:103170007A73084802AA8DF8074001A90093042336
:10318000FFF7A1F910B16FF003003EBD00F012FA95
:1031900000203EBDB000012010B5FFF7C1FC00F0DB
:1031A00045F801460648814204D106A000F090FE91
:1031B000002010BD09A000F08BFE4FF0FF3010BDC5
:1031C0001740EF00573235513634204F4B2C666C88
:1031D0006173682049443A25580D0A005732355129
:1031E0003634204552524F5221212121212020499D
:1031F000443A25580D0A00007CB503230C0C8DF8C9
:1032000004300D0A8DF8054004238DF80650009215
:10321000024605488DF8071001A9FFF707FD0028B1
:1032200001D06FF004007CBDB00001200EB59F20DE
:103230004FF47A718DF8080004230A4801AA00911E
:1032400002A9FFF740F908B101200EBD9DF8052045
:103250009DF806009DF80710120442EA002008437A
:103260000EBD0000B0000120F0B52DED028B00274F
:1032700083B0FDF723FC594C05462068FFF76AFF31
:103280006060FDF71BFC6268411B22B1616854A0BD
:1032900000F01EFEFEE75AA000F01AFE644E4FF446
:1032A0000045F7557F1CAF42FBD3FDF707FC2168B3
:1032B00007462A465E4800F099F96060FDF7FEFB7C
:1032C000C21B606800EE102ADFED5A0AB8EE401A01
:1032D00080EE810A20B1616857A000F0F9FDFEE799
:1032E000B7EEC00A20215CA08DED000B00F0F0FDD0
:1032F000FDF7E4FB216807462A466748FFF77CFF95
:103300006060FDF7DBFBC21BDFED640A60689FEDC8
:10331000648A00EE102AB8EE400A80EE801A21EE90
:10332000080A20B161685FA000F0D2FDFEE7B7EEA9
:10333000C00A202163A08DED000B00F0C9FD5648A6
:103340000021725C435C9A4203D06EA000F0C0FD85
:10335000FEE7491CA942F4D374A000F0B9FD7D48F2
:1033600000F0B6FD7C4800F0B3FD7C4800F0B0FDF5
:103370007BA000F0ADFDFDF7A1FB0026074621680C
:103380002A464548FFF738FF60602068761CFF2E0C
:1033900000F500402060F2D9FDF790FBC21B606889
:1033A00000EE102AF2EE000AB8EE400A80EE801A13
:1033B00021EE080A20B161683AA000F089FDFEE71D
:1033C000B7EEC00A08216BA08DED000B00F080FD68
:1033D000606803B040B2BDEC028BF0BD000000207D
:1033E0000D0A20B2C1B3FDCAA7B0DC2121212121E1
:1033F0002020B4EDCEF3B4FAC2EB3A25640D0A00F6
:103400000D0A57323551363420B2C1B3FDB3C9B9B4
:10341000A62C20B2C1B3FD33324BD7D6BDDACBF9DF
:10342000D0E8CAB1BCE43A202564206D730D0A00CF
:1034300020000020000000470D0AD0B4C8EBB4ED16
:10344000CEF321212121212020B4EDCEF3B4FAC204
:10345000EB3A25640D0A00000D0AD0B4C8EBB3C9DD
:10346000B9A62CCAFDBEDDB4F3D0A1A3BA25642051
:103470004B422C20BAC4CAB13A202564206D732C6B
:1034800020D0B4C8EBCBD9B6C8A3BA252E3266205B
:103490004B422F730D0A0000208000200000003DE9
:1034A00000007A440D0AB6C1C8A1B4EDCEF32121C3
:1034B0002121212020B4EDCEF3B4FAC2EB3A2564E9
:1034C0000D0A00000D0AB6C1C8A1B3C9B9A62CCA1D
:1034D000FDBEDDB4F3D0A1A3BA2564204B422C205D
:1034E000BAC4CAB13A202564206D732C20B6C1C875
:1034F000A1CBD9B6C8A3BA252E3266204D422F7370
:10350000200D0A000D0ACAFDBEDDD0A3D1E9CAA76D
:10351000B0DC2121212121B3F6B4EDCAFDBEDDCE00
:10352000BBD6C33A25640D0A000000000D0AD0A3E3
:10353000D1E9CDA8B9FD212121212120535049C72E
:10354000FDB6AF573235513634B2E2CAD4D5FDB3E9
:10355000A30D0A006848000818490008D44800086C
:103560000D0ABFAACABCB6C1C8A13E3E3E3E0D0A66
:10357000000000000D0AB6C1C8A1B3C9B9A62CCA83
:10358000FDBEDDB4F3D0A1A3BA2564204D422C20AA
:10359000BAC4CAB13A202564206D732C20B6C1C8C4
:1035A000A1CBD9B6C8A3BA252E3266204D422F73BF
:1035B000200D0A00FEB5002405264FF47A7500BFE1
:1035C0000948022301AA8DF8086002A98DF8054078
:1035D0000095FEF778FF10B16FF00200FEBD9DF878
:1035E0000500C007ECD1FEBDB00001202DE9F0417F
:1035F000CBB2C3F58074944200D914460D468F189F
:1036000006464FF480782946A2B2304600F026F8EC
:1036100018B16FF00400BDE8F081254405F5807015
:10362000B842264401D97C1B00E04446BD42EAD39F
:103630000020F0E70EB506204FF47A718DF80400F3
:103640000123054802AA009101A9FEF73CFF0028CA
:1036500001D06FF001000EBDB0000120F0B50024D4
:103660001646C1B00D460746FFF7E4FF02218DF86C
:1036700000102A0C8DF801202B0A8DF802306846C4
:103680008DF8035006E000BF021917F8011B641CF7
:10369000A4B21171B442F7D3361D0146B2B2074845
:1036A0004FF47A73FEF7F4FD18B16FF0040041B0E7
:1036B000F0BDFFF77FFF0020F9E70000B000012018
:1036C0002DE9F041984616460D460746069C09E04E
:1036D000FDF7F4F9A0EB0800A04202D3601C01D072
:1036E0000BE054B13868406935EA000007D000208B
:1036F000B042EDD00020BDE8F0810320FBE70120BF
:10370000F6E77047FDF7E0B970B5CAB04C212EA8B6
:10371000FCF720FE202141A8FCF71CFEB8216846DA
:10372000FCF718FE0220FDF765FA2848002401681E
:1037300041F440410160016801F440414991016850
:103740008904FCD50225379501202E9005263C954D
:1037500001042F9170220820CDE93856CDE93A2591
:10376000CDE93E042EA83D954094FEF70BFA08B132
:1037700072B6FEE70DF5827C40203F2103228CE8E3
:10378000160003014890CDE944400721CDE94603E6
:1037900041A8FDF7E7FF08B172B6FEE74FF480409D
:1037A0006421CDE90215CDE9000680220894830347
:1037B0006846CDE90624CDE904652B93FDF79AFB15
:1037C000002801D072B6FEE74AB070BD1848025812
:1037D0002948F0B5294A016841F470010160106878
:1037E00000F00F00032804D2106820F00F00C01C66
:1037F000106023490020224C10340B68214D43F007
:1038000001030B6020600B682B400B60136803F012
:103810000F03032B04D9136823F00F03DB1C136081
:10382000174C194A1834194B261D371D2060144CAB
:10383000174D28343060261D3860371D23603B1D2E
:1038400035601C1D3A60251D2E1D1860331D226039
:103850002860326018600A6843F2D2040D4D084BAC
:1038600022F48022044F60330A606E03803F1860A8
:103870002C603E60F0BD000088ED00E000200052AA
:10388000004402587FEDF6EA8002010100020202C4
:103890000000FF010040005230B5416EB9B101682F
:1038A0000D4B03F108048A688968C2F34262490F2C
:1038B0005D5C615C2D01B5FBF1F1A0F86A10995CCB
:1038C000A25C0901B1FBF2F1A0F8681030BD012142
:1038D000A0F86A10F8E700004848000890F828109F
:1038E000C90706D00168C36A4A6822F400321A4345
:1038F0004A6090F82810890706D50168036B4A686A
:1039000022F480321A434A6090F82810490706D5FD
:103910000168436B4A6822F480221A434A6090F897
:103920002810090706D50168836B4A6822F4004213
:103930001A434A6090F82810C90606D50168C36B7F
:103940008A6822F480521A438A6090F82810890607
:1039500006D50168036C8A6822F400521A438A6013
:1039600090F82810490611D50168436C4A6822F482
:1039700080121A434A60416CB1F5801F06D101687C
:10398000836C4A6822F4C0021A434A6090F82810F7
:10399000090606D50168C26C486820F4002010436F
:1039A00048607047F8B500260446C0F88C60FDF703
:1039B00085F8054620686FF07E470068000708D547
:1039C00000222B464FF400112046009700F006FA23
:1039D00060B92068006840070AD500222B464FF4E2
:1039E00080012046009700F0F9F908B10320F8BDE6
:1039F0002020C4F88400C4F88800E666002084F81B
:103A00008060F8BD2DE9F04304468068E14E87B040
:103A1000E14B2168D4E90427D4F81CC010430A689C
:103A2000002547EA0C073843324002430A60206809
:103A3000E268416821F44051114341602268A16964
:103A40009A4201D0206A01439768DFF850C3D44EF0
:103A5000D44807EA0C070F4397602168676ACA6A6F
:103A600022F00F023A43CA622268B2420ED10068C5
:103A700000F0380018286FD07ADCB8B308286CD072
:103A800010286BD18BE0282868D18EE0C6498A4285
:103A900009D1006800F0070006285FD2DFE800F0D7
:103AA000507D7F818385C1498A4209D1006800F039
:103AB000070006287BD2DFE800F043707274767846
:103AC000BB498A4209D1006800F0070006286ED27F
:103AD000DFE800F036636567696BB6498A420BD14F
:103AE000006800F00700062861D200E043E0DFE84C
:103AF00000F0275456585A5CAF498A4206D10068F4
:103B000000F0380018284CD0B7DD31E0AB498A42CC
:103B100009D1006800F00700062848D2DFE800F06D
:103B2000103D3F414345A6498A420BD1006800F051
:103B3000070006283BD2DFE800F003303234363885
:103B4000002035E09F498A4209D1006800F0380022
:103B5000182826D091DD0BE023E01EE027E09A49EB
:103B60008A420AD1006800F03800182819D084DD94
:103B7000202888D11CE001201AE09A4217D18948F8
:103B8000001D006800F00700062810D2DFE800F0F2
:103B9000030507090B0D02200AE0042008E00820B5
:103BA00006E0102004E0202002E0402000E0802019
:103BB0008649DFF81C829A42864A4FF400434FEA56
:103BC00021174FF000064CD110281AD006DC02282D
:103BD00009D004280BD008287DD10DE020283CD046
:103BE000402878D13BE0FDF72FF8014610E0684609
:103BF000FDF73CF801990BE003A8FDF7D9F804990B
:103C000006E01068800604D51068C0F3C100C1400A
:103C1000B1B3606A676838F8102007EB4703B1FB5F
:103C2000F2F0834257D8B0EB073F54D80023084640
:103C30001946FCF757FB030E7A08000243EA0121FC
:103C400080183A4671410023FCF74CFB624AA0F50C
:103C5000407191423FD821684CE03946D9E7194676
:103C6000D7E7D4F81CC04FF6EF799C4552D108280D
:103C70001AD006DC60B101280DD004282BD10EE04B
:103C800039E0102815D0202840D040287CD13FE0D2
:103C9000FDF7B8FE01E0FDF7C7FE014610E06846FB
:103CA000FCF7E4FF01990BE003A8FDF781F8049904
:103CB00006E01068800604D51068C0F3C100C1405A
:103CC000C9B1636A606838F81330B1FBF3F1490099
:103CD00001EB500100E057E0B1FBF0F080B2A0F141
:103CE0001001494550D84FF6F0732168C0F34202E5
:103CF00018401043C8600120A4F86A00A4F86800C6
:103D000028462667666707B0BDE8F0833946D8E7DE
:103D10001946D6E7082819D005DC58B101280CD07F
:103D2000042831D10DE0102815D020282ED04028AD
:103D30002AD12DE0FDF766FE01E0FDF775FE014694
:103D400010E06846FCF792FF01990BE003A8FDF72D
:103D50002FF8049906E01068800605D51068C0F3B6
:103D6000C100C1400029C6D0636A606838F81330CA
:103D7000B1FBF3F101EB5001B1FBF0F080B2A0F127
:103D8000100149457FF667AF0125B4E73946EBE7F7
:103D90001946E9E7F369FFCF000C0058FFF4FF1163
:103DA00000100140544402580044004000480040C4
:103DB000004C0040005000400014014000780040DA
:103DC000007C004000180140001C01400090D0031E
:103DD0003048000800440258FFFC0F002DE9F0476E
:103DE0009A4617460E460446089D4FF000094FF0CC
:103DF000200839E0681C37D0FCF760FEA0EB0A0011
:103E0000A84222D80DB32068016849072CD5C069A3
:103E1000C043000528D423684FF40061196221686B
:103E20000B6823F4D0730B6021688B6823F00103C7
:103E30008B60C4F88480C4F88880C4F88C8000BF8C
:103E4000032084F88090BDE8F08721680B6823F494
:103E5000D0730B6021688B6823F001038B60C4F87A
:103E60008480C4F88880EBE72068C06936EA0000E7
:103E700004D00020B842BDD00020E4E70120F9E7DB
:103E80001148002110B50F4C0C224FF4E1330460AF
:103E9000C0E90131C160C0E904128161C161016200
:103EA00041628162FEF71EFD07480021FEF7F4FC27
:103EB00005480021FEF7CAFCBDE810400248FEF7A5
:103EC000A5BC00000010014020000120FEE700001A
:103ED0000FB4054B10B503A9044A029800F0EAF8A4
:103EE00010BC5DF814FB0000E54700081C00002032
:103EF000090700284FEA116104DB00F1E02080F897
:103F00000014704700F00F0000F1E02080F8141D4D
:103F1000704702E008C8121F08C1002AFAD1704792
:103F20007047002001E001C1121F002AFBD1704739
:103F30002DE9FF5F82B00021DDE90430020DDDF8DC
:103F400040B0034318D044F61050A2F2FF3242436F
:103F50001514119801281FD0A5EB0B00401C5FEA37
:103F6000000A4FF000064E4FDFF83891B046504639
:103F700015D5CAF1000413E0119801244AA30128C1
:103F800001D16FEA0B010298119AC0E90031C0E932
:103F9000024206B0BDE8F09FCBF10000DFE7044627
:103FA0000021404A491842EB0450CDE9001012E0CC
:103FB000E00707D032463B4640464946FCF7B1FA97
:103FC0008046894632463B4610461946FCF7A9FA18
:103FD00006460F466410002CEAD1DDE90401DDE954
:103FE0000023BAF1000F06DAFCF79BFA42464B4673
:103FF000FCF797FA05E0FCF706FB42464B46FCF758
:1040000002FB04460E460022284BFCF783FB03D834
:104010004FF0FF30014607E00022254B2046314695
:10402000FCF7D8F9FCF75EFB102409E0002C0ADB52
:104030000A220023FCF756F9039B30321A55641EFE
:1040400050EA0102F2D1641C039AC4F11103144432
:10405000119A012A03D0012208430DD10AE0084336
:1040600004D000204FF0110B119072E7A3EB0B0569
:104070006D1E0DE05B4504DD4FF0000205F101050A
:1040800004E003DA4FF00002A5F10105002AECD0AC
:1040900002981199C0E90231C0E9004579E70000B2
:1040A000000014400000F03F300000000000F0432A
:1040B0000000E03F2DE9FF4F95B09B46894606463C
:1040C00000250FE2252877D100242746F84A012150
:1040D000059400E0044316F8013F203B01FA03F089
:1040E0001042F7D130782A2811D06FF02F033078A2
:1040F000A0F13002092A16D8059A44F0020402EB16
:10410000820203EB42021044761C0590EFE759F857
:10411000042B0592002A03DA504244F4005405901F
:1041200044F00204761C30782E2816D116F8010FC0
:1041300044F004042A280DD06FF02F023078A0F14B
:104140003003092B09D807EB870302EB4303C71899
:10415000761CF3E759F8047B761C30786C280FD076
:1041600006DC4C2817D068280DD06A2814D104E04A
:10417000742810D07A280FD10DE044F400140AE01E
:1041800044F4801401E044F440147278824202D175
:1041900004F58014761C761C307866280BD013DC6E
:1041A000582877D009DC002875D04528F6D0462855
:1041B000F4D047281AD19DE118E0632835D064284F
:1041C00079D0652812D195E1702873D008DC672872
:1041D000F1D069286FD06E280DD06F2806D1B5E0D8
:1041E00073282CD0752875D0782874D05A46179922
:1041F00090476D1C75E1C4F30250022809D00328D2
:104200000DD0D9F8001004280DD00D6009F1040973
:1042100067E1D9F80010EA17C1E90052F6E7D9F8CA
:1042200000100D80F2E70D70F0E719F8041B8DF80F
:10423000001000208DF80100EA46012003E059F843
:1042400004AB4FF0FF3061074FF0000102D40DE0E6
:1042500008F101018846B9420FDA8045F8DB1AF807
:1042600008100029F4D108E008F1010188468142D4
:10427000FADB1AF808100029F6D105985B46A0EB86
:10428000080721463846179A00F094FA284400EBB4
:10429000080507E04DE029E10DE01AF8010B5A4648
:1042A00017999047B8F10108F7D25B462146384686
:1042B000179A13E142E00A220092C4F302524FF02F
:1042C000000A022A08D059F804CB032A4FEAEC71FD
:1042D0000AD00DE029E02AE009F1070121F00702E8
:1042E000F2E802C1914609E00FFA8CFC4FEAEC714A
:1042F000042A03D14FFA8CFC4FEAEC71002907DA4B
:104300000A460021DCF1000C61EB02012D2202E0E3
:10431000220504D52B228DF80420012203E0E207B8
:1043200001D02022F7E7904659E00A2102E010224E
:104330000DE010214FF0000A00910BE010224FF029
:10434000000A44F004040827009203E008224FF01A
:10435000000A0092C4F30252022A05D059F804CB95
:104360000021032A08D009E009F1070121F0070222
:10437000F2E802C1914605E01FFA8CFC042A01D143
:104380000CF0FF0C4FF00008220728D5702806D04B
:10439000009B83F0100353EA0A0305D00EE040228D
:1043A0008DF80420012208E05CEA010206D03022E8
:1043B0008DF804208DF8050002229046009B83F0C2
:1043C000080353EA0A030AD15CEA010201D1620739
:1043D00005D530228DF804204FF001087F1E5828A3
:1043E00004D034A003900EA802900DE036A0F9E7A7
:1043F00053466046009AFBF775FF84460398825C3B
:104400000298401E029002705CEA0100F0D102980E
:1044100006A9081A00F1200A600702D524F48034A6
:1044200000E00127574502DDA7EB0A0000E000206D
:1044300000EB0A01009005984144401A0590E00302
:1044400006D45B462146179A059800F0B3F9054457
:10445000002706E001A85A46C05D179990476D1CD9
:104460007F1C4745F6DBE0030CD55B462146179AD7
:10447000059800F09FF9054404E030205A4617994A
:1044800090476D1C0099481E00900029F5DC08E05B
:10449000029802995A460078491C02911799904750
:1044A0006D1CBAF10001AAF1010AF1DC65E100001E
:1044B00009280100303132333435363738396162FA
:1044C00063646566000000003031323334353637BE
:1044D00038394142434445460000000000F058F995
:1044E0000544761C307800287FF4ECAD19B02846DE
:1044F000BDE8F08F620700D4062709F1070222F019
:10450000070CFCE80223E14603F000485FEA080CD0
:1045100002D00FF2702C0DE05FEA045C02D50FF2BE
:10452000682C07E05FEAC47C02D00FF2602C01E047
:10453000AFF2700C4FF0FF3823F00043CDF850C0BD
:1045400065280CD006DC452809D046281DD0472810
:104550003DD13DE0662818D067287ED138E00021A3
:10456000112F01DB112000E0781CCDE9000106A924
:104570000EA8FFF7DDFCDDE90F010E9A0391002183
:10458000009207F1010A04914DE04FF000400097BE
:10459000CDE9011006A90EA8FFF7CAFCDDE90F025C
:1045A00003920E9B11990022DDF80CA00093049257
:1045B00011B9791C00EB010AB7EB0A0004D4C0F171
:1045C000FF3007F1010A0490AAEB0700019044E0D4
:1045D000012F00DA01270021112F01DD112000E059
:1045E0003846CDE9000106A90EA8FFF7A1FCDDE9D8
:1045F0000F010E9A0391002104910092BA462107FF
:104600000CD40399514500DA8A46BAF1010F05DD51
:10461000009AAAF10101515C302908D0B84202DAAF
:1046200010F1040F06DA0121CDE9011015E0AAF11D
:104630000101E9E7002805DC049901440491AAEB93
:10464000000102E0411C514500DD8A460499401AF0
:10465000401C01904FF000400290200704D40198C4
:10466000504501DBCDF8048000208DF84F00029802
:104670000DF14F07B0F1004F25D02B200E9002987E
:104680004FF0020800280CDA404202902D200E90D4
:1046900007E00A210298FBF768FE3031029007F824
:1046A000011DB8F10001A8F10108F2DC0298002810
:1046B000EFD1791E0E980870307800F0200040F09D
:1046C000450007F8020D12A8C01B00F10708149856
:1046D000007800B1012000EB0A01019801EBE071C4
:1046E00005984144401A401E0590E00306D45B46FD
:1046F0002146179A059800F05DF805441498007853
:1047000018B15A46179990476D1CE00324D55B46B3
:104710002146179A059800F04DF805441CE00498CE
:10472000002807DBDDE90301884203DD0098405CD7
:10473000179901E0179930205A469047049805F1DF
:104740000105401C04900198401E019004D12E20C8
:104750005A46179990476D1CBAF10001AAF1010A57
:10476000DDDC05E017F8010B5A46179990476D1CE0
:10477000B8F10001A8F10108F4DC5B462146179A64
:104780000598ABE62D0000002B0000002000000083
:104790002DE9F041044600251E461746880404D43E
:1047A00005E039462020B0476D1C641EF9D5284627
:1047B000BDE8F0812DE9F041044600251E469046F3
:1047C000C80301D5302700E02027880404D505E080
:1047D00041463846B0476D1C641EF9D52846BDE8F1
:1047E000F081000013B50448642301226946FEF7F6
:1047F000F1F800981CBD000020000120FCF76CF9C6
:10480000FEF782FFFEF766F9FEF744F9FFF738FB83
:10481000FEF7C2FCFEF728FD044C02212046FCF7FF
:104820003FF96420FCF712F8F7E70000000802588F
:10483000010002000400060008000A000C0010003D
:104840002000400080000001010101030701000079
:104850000804020408010101000000000102030431
:1048600001020304060708090D0A2A2A2A2A2A2A0D
:104870002A2A2A2A2A2A2A2A2A2A2A2A2A2A2A2A98
:104880002A2A2A2A2A2A2A2A2A2A2A2A2A2A2A2A88
:104890002A2A2A2A2A2A2A2A2A2A2A2A2A2A2A2A78
:1048A0002A2A2A2A2A2A2A2A2A2A2A2A2A2A2A2A68
:1048B0002A2A2A2A2A2A2A2A2A2A2A2A2A2A2A2A58
:1048C0002A2A2A2A2A2A2A2A2A2A2A2A2A2A2A0D65
:1048D0000A0000000D0ABDD3CFC2C0B4B6C1C8A142
:1048E000D5FBC6AC666C617368B5C4CAFDBEDDD3CA
:1048F000C3D2D4B2E2CAD4CBD9B6C8A3ACD5E2D124
:10490000F9B5C3B3F6B5C4CBD9B6C8CEF3B2EEB1E0
:10491000C8BDCFD0A10D0A000D0AC9CFC3E6B5C4EA
:10492000B2E2CAD4D6D0A3ACB6C1C8A1B5C4CAFD40
:10493000BEDDB1C8BDCFD0A1A3ACBAC4CAB1BADC88
:10494000B6CCA3ACBCD3D6AEB2E2C1BFB5C4D7EE31
:10495000D0A1B5A5CEBBCEAA6D73A3ACBCC6CBE32C
:10496000B3F6B5C4B6C1C8A1CBD9B6C8CEF3B2EEC2
:10497000BDCFB4F30D0A00009849000800000020E4
:1049800020000000123F0008B84900082000002065
:1049900018050100223F0008000000000000000090
:1049A0000100000010000000000000000090D00393
:0849B0000090D003000000009C
:04000005080002AD40
:00000001FF
